{
  "_format": "hh-sol-artifact-1",
  "contractName": "BuyMyRoom",
  "sourceName": "contracts/BuyMyRoom.sol",
  "abi": [
    {
      "inputs": [],
      "stateMutability": "nonpayable",
      "type": "constructor"
    },
    {
      "inputs": [
        {
          "internalType": "address",
          "name": "sender",
          "type": "address"
        },
        {
          "internalType": "uint256",
          "name": "tokenId",
          "type": "uint256"
        },
        {
          "internalType": "address",
          "name": "owner",
          "type": "address"
        }
      ],
      "name": "ERC721IncorrectOwner",
      "type": "error"
    },
    {
      "inputs": [
        {
          "internalType": "address",
          "name": "operator",
          "type": "address"
        },
        {
          "internalType": "uint256",
          "name": "tokenId",
          "type": "uint256"
        }
      ],
      "name": "ERC721InsufficientApproval",
      "type": "error"
    },
    {
      "inputs": [
        {
          "internalType": "address",
          "name": "approver",
          "type": "address"
        }
      ],
      "name": "ERC721InvalidApprover",
      "type": "error"
    },
    {
      "inputs": [
        {
          "internalType": "address",
          "name": "operator",
          "type": "address"
        }
      ],
      "name": "ERC721InvalidOperator",
      "type": "error"
    },
    {
      "inputs": [
        {
          "internalType": "address",
          "name": "owner",
          "type": "address"
        }
      ],
      "name": "ERC721InvalidOwner",
      "type": "error"
    },
    {
      "inputs": [
        {
          "internalType": "address",
          "name": "receiver",
          "type": "address"
        }
      ],
      "name": "ERC721InvalidReceiver",
      "type": "error"
    },
    {
      "inputs": [
        {
          "internalType": "address",
          "name": "sender",
          "type": "address"
        }
      ],
      "name": "ERC721InvalidSender",
      "type": "error"
    },
    {
      "inputs": [
        {
          "internalType": "uint256",
          "name": "tokenId",
          "type": "uint256"
        }
      ],
      "name": "ERC721NonexistentToken",
      "type": "error"
    },
    {
      "anonymous": false,
      "inputs": [
        {
          "indexed": true,
          "internalType": "address",
          "name": "owner",
          "type": "address"
        },
        {
          "indexed": true,
          "internalType": "address",
          "name": "approved",
          "type": "address"
        },
        {
          "indexed": true,
          "internalType": "uint256",
          "name": "tokenId",
          "type": "uint256"
        }
      ],
      "name": "Approval",
      "type": "event"
    },
    {
      "anonymous": false,
      "inputs": [
        {
          "indexed": true,
          "internalType": "address",
          "name": "owner",
          "type": "address"
        },
        {
          "indexed": true,
          "internalType": "address",
          "name": "operator",
          "type": "address"
        },
        {
          "indexed": false,
          "internalType": "bool",
          "name": "approved",
          "type": "bool"
        }
      ],
      "name": "ApprovalForAll",
      "type": "event"
    },
    {
      "anonymous": false,
      "inputs": [
        {
          "indexed": false,
          "internalType": "uint256",
          "name": "tokenId",
          "type": "uint256"
        },
        {
          "indexed": false,
          "internalType": "address",
          "name": "owner",
          "type": "address"
        }
      ],
      "name": "HouseDelist",
      "type": "event"
    },
    {
      "anonymous": false,
      "inputs": [
        {
          "indexed": false,
          "internalType": "uint256",
          "name": "tokenId",
          "type": "uint256"
        },
        {
          "indexed": false,
          "internalType": "uint256",
          "name": "price",
          "type": "uint256"
        },
        {
          "indexed": false,
          "internalType": "address",
          "name": "owner",
          "type": "address"
        }
      ],
      "name": "HouseList",
      "type": "event"
    },
    {
      "anonymous": false,
      "inputs": [
        {
          "indexed": false,
          "internalType": "uint256",
          "name": "tokenId",
          "type": "uint256"
        },
        {
          "indexed": false,
          "internalType": "uint256",
          "name": "price",
          "type": "uint256"
        },
        {
          "indexed": false,
          "internalType": "address",
          "name": "seller",
          "type": "address"
        },
        {
          "indexed": false,
          "internalType": "address",
          "name": "buyer",
          "type": "address"
        }
      ],
      "name": "HouseSell",
      "type": "event"
    },
    {
      "anonymous": false,
      "inputs": [
        {
          "indexed": true,
          "internalType": "address",
          "name": "from",
          "type": "address"
        },
        {
          "indexed": true,
          "internalType": "address",
          "name": "to",
          "type": "address"
        },
        {
          "indexed": true,
          "internalType": "uint256",
          "name": "tokenId",
          "type": "uint256"
        }
      ],
      "name": "Transfer",
      "type": "event"
    },
    {
      "inputs": [
        {
          "internalType": "address",
          "name": "to",
          "type": "address"
        },
        {
          "internalType": "uint256",
          "name": "tokenId",
          "type": "uint256"
        }
      ],
      "name": "approve",
      "outputs": [],
      "stateMutability": "nonpayable",
      "type": "function"
    },
    {
      "inputs": [
        {
          "internalType": "address",
          "name": "owner",
          "type": "address"
        }
      ],
      "name": "balanceOf",
      "outputs": [
        {
          "internalType": "uint256",
          "name": "",
          "type": "uint256"
        }
      ],
      "stateMutability": "view",
      "type": "function"
    },
    {
      "inputs": [
        {
          "internalType": "uint256",
          "name": "tokenId",
          "type": "uint256"
        }
      ],
      "name": "buyHouse",
      "outputs": [],
      "stateMutability": "payable",
      "type": "function"
    },
    {
      "inputs": [
        {
          "internalType": "uint256",
          "name": "tokenId",
          "type": "uint256"
        }
      ],
      "name": "buyHouseWithPoint",
      "outputs": [],
      "stateMutability": "nonpayable",
      "type": "function"
    },
    {
      "inputs": [
        {
          "internalType": "address",
          "name": "owner",
          "type": "address"
        }
      ],
      "name": "createHouse",
      "outputs": [
        {
          "internalType": "uint256",
          "name": "",
          "type": "uint256"
        }
      ],
      "stateMutability": "nonpayable",
      "type": "function"
    },
    {
      "inputs": [
        {
          "internalType": "uint256",
          "name": "tokenId",
          "type": "uint256"
        }
      ],
      "name": "delistHouse",
      "outputs": [],
      "stateMutability": "nonpayable",
      "type": "function"
    },
    {
      "inputs": [],
      "name": "ercPoint",
      "outputs": [
        {
          "internalType": "contract ERCPoint",
          "name": "",
          "type": "address"
        }
      ],
      "stateMutability": "view",
      "type": "function"
    },
    {
      "inputs": [
        {
          "internalType": "uint256",
          "name": "tokenId",
          "type": "uint256"
        }
      ],
      "name": "getApproved",
      "outputs": [
        {
          "internalType": "address",
          "name": "",
          "type": "address"
        }
      ],
      "stateMutability": "view",
      "type": "function"
    },
    {
      "inputs": [],
      "name": "getHousesListed",
      "outputs": [
        {
          "components": [
            {
              "internalType": "uint256",
              "name": "tokenId",
              "type": "uint256"
            },
            {
              "internalType": "uint256",
              "name": "listedTimestamp",
              "type": "uint256"
            },
            {
              "internalType": "uint256",
              "name": "price",
              "type": "uint256"
            },
            {
              "internalType": "bool",
              "name": "isListed",
              "type": "bool"
            },
            {
              "internalType": "address",
              "name": "owner",
              "type": "address"
            }
          ],
          "internalType": "struct BuyMyRoom.House[]",
          "name": "",
          "type": "tuple[]"
        }
      ],
      "stateMutability": "view",
      "type": "function"
    },
    {
      "inputs": [],
      "name": "getMyHouses",
      "outputs": [
        {
          "components": [
            {
              "internalType": "uint256",
              "name": "tokenId",
              "type": "uint256"
            },
            {
              "internalType": "uint256",
              "name": "listedTimestamp",
              "type": "uint256"
            },
            {
              "internalType": "uint256",
              "name": "price",
              "type": "uint256"
            },
            {
              "internalType": "bool",
              "name": "isListed",
              "type": "bool"
            },
            {
              "internalType": "address",
              "name": "owner",
              "type": "address"
            }
          ],
          "internalType": "struct BuyMyRoom.House[]",
          "name": "",
          "type": "tuple[]"
        }
      ],
      "stateMutability": "view",
      "type": "function"
    },
    {
      "inputs": [
        {
          "internalType": "uint256",
          "name": "",
          "type": "uint256"
        }
      ],
      "name": "houses",
      "outputs": [
        {
          "internalType": "uint256",
          "name": "tokenId",
          "type": "uint256"
        },
        {
          "internalType": "uint256",
          "name": "listedTimestamp",
          "type": "uint256"
        },
        {
          "internalType": "uint256",
          "name": "price",
          "type": "uint256"
        },
        {
          "internalType": "bool",
          "name": "isListed",
          "type": "bool"
        },
        {
          "internalType": "address",
          "name": "owner",
          "type": "address"
        }
      ],
      "stateMutability": "view",
      "type": "function"
    },
    {
      "inputs": [
        {
          "internalType": "address",
          "name": "owner",
          "type": "address"
        },
        {
          "internalType": "address",
          "name": "operator",
          "type": "address"
        }
      ],
      "name": "isApprovedForAll",
      "outputs": [
        {
          "internalType": "bool",
          "name": "",
          "type": "bool"
        }
      ],
      "stateMutability": "view",
      "type": "function"
    },
    {
      "inputs": [
        {
          "internalType": "uint256",
          "name": "tokenId",
          "type": "uint256"
        },
        {
          "internalType": "uint256",
          "name": "price",
          "type": "uint256"
        }
      ],
      "name": "listHouse",
      "outputs": [],
      "stateMutability": "nonpayable",
      "type": "function"
    },
    {
      "inputs": [],
      "name": "name",
      "outputs": [
        {
          "internalType": "string",
          "name": "",
          "type": "string"
        }
      ],
      "stateMutability": "view",
      "type": "function"
    },
    {
      "inputs": [
        {
          "internalType": "uint256",
          "name": "tokenId",
          "type": "uint256"
        }
      ],
      "name": "ownerOf",
      "outputs": [
        {
          "internalType": "address",
          "name": "",
          "type": "address"
        }
      ],
      "stateMutability": "view",
      "type": "function"
    },
    {
      "inputs": [
        {
          "internalType": "address",
          "name": "from",
          "type": "address"
        },
        {
          "internalType": "address",
          "name": "to",
          "type": "address"
        },
        {
          "internalType": "uint256",
          "name": "tokenId",
          "type": "uint256"
        }
      ],
      "name": "safeTransferFrom",
      "outputs": [],
      "stateMutability": "nonpayable",
      "type": "function"
    },
    {
      "inputs": [
        {
          "internalType": "address",
          "name": "from",
          "type": "address"
        },
        {
          "internalType": "address",
          "name": "to",
          "type": "address"
        },
        {
          "internalType": "uint256",
          "name": "tokenId",
          "type": "uint256"
        },
        {
          "internalType": "bytes",
          "name": "data",
          "type": "bytes"
        }
      ],
      "name": "safeTransferFrom",
      "outputs": [],
      "stateMutability": "nonpayable",
      "type": "function"
    },
    {
      "inputs": [
        {
          "internalType": "address",
          "name": "operator",
          "type": "address"
        },
        {
          "internalType": "bool",
          "name": "approved",
          "type": "bool"
        }
      ],
      "name": "setApprovalForAll",
      "outputs": [],
      "stateMutability": "nonpayable",
      "type": "function"
    },
    {
      "inputs": [
        {
          "internalType": "bytes4",
          "name": "interfaceId",
          "type": "bytes4"
        }
      ],
      "name": "supportsInterface",
      "outputs": [
        {
          "internalType": "bool",
          "name": "",
          "type": "bool"
        }
      ],
      "stateMutability": "view",
      "type": "function"
    },
    {
      "inputs": [],
      "name": "symbol",
      "outputs": [
        {
          "internalType": "string",
          "name": "",
          "type": "string"
        }
      ],
      "stateMutability": "view",
      "type": "function"
    },
    {
      "inputs": [
        {
          "internalType": "uint256",
          "name": "tokenId",
          "type": "uint256"
        }
      ],
      "name": "tokenURI",
      "outputs": [
        {
          "internalType": "string",
          "name": "",
          "type": "string"
        }
      ],
      "stateMutability": "view",
      "type": "function"
    },
    {
      "inputs": [
        {
          "internalType": "address",
          "name": "from",
          "type": "address"
        },
        {
          "internalType": "address",
          "name": "to",
          "type": "address"
        },
        {
          "internalType": "uint256",
          "name": "tokenId",
          "type": "uint256"
        }
      ],
      "name": "transferFrom",
      "outputs": [],
      "stateMutability": "nonpayable",
      "type": "function"
    }
  ],
  "bytecode": "0x6080604052600060075560026009553480156200001b57600080fd5b506040518060400160405280600981526020017f4275794d79526f6f6d00000000000000000000000000000000000000000000008152506040518060400160405280600481526020017f42594d52000000000000000000000000000000000000000000000000000000008152508160009081620000999190620003e9565b508060019081620000ab9190620003e9565b50505033600660006101000a81548173ffffffffffffffffffffffffffffffffffffffff021916908373ffffffffffffffffffffffffffffffffffffffff160217905550604051620000fd9062000161565b604051809103906000f0801580156200011a573d6000803e3d6000fd5b50600a60006101000a81548173ffffffffffffffffffffffffffffffffffffffff021916908373ffffffffffffffffffffffffffffffffffffffff160217905550620004d0565b6116a28062003c4983390190565b600081519050919050565b7f4e487b7100000000000000000000000000000000000000000000000000000000600052604160045260246000fd5b7f4e487b7100000000000000000000000000000000000000000000000000000000600052602260045260246000fd5b60006002820490506001821680620001f157607f821691505b602082108103620002075762000206620001a9565b5b50919050565b60008190508160005260206000209050919050565b60006020601f8301049050919050565b600082821b905092915050565b600060088302620002717fffffffffffffffffffffffffffffffffffffffffffffffffffffffffffffffff8262000232565b6200027d868362000232565b95508019841693508086168417925050509392505050565b6000819050919050565b6000819050919050565b6000620002ca620002c4620002be8462000295565b6200029f565b62000295565b9050919050565b6000819050919050565b620002e683620002a9565b620002fe620002f582620002d1565b8484546200023f565b825550505050565b600090565b6200031562000306565b62000322818484620002db565b505050565b5b818110156200034a576200033e6000826200030b565b60018101905062000328565b5050565b601f821115620003995762000363816200020d565b6200036e8462000222565b810160208510156200037e578190505b620003966200038d8562000222565b83018262000327565b50505b505050565b600082821c905092915050565b6000620003be600019846008026200039e565b1980831691505092915050565b6000620003d98383620003ab565b9150826002028217905092915050565b620003f4826200016f565b67ffffffffffffffff81111562000410576200040f6200017a565b5b6200041c8254620001d8565b620004298282856200034e565b600060209050601f8311600181146200046157600084156200044c578287015190505b620004588582620003cb565b865550620004c8565b601f19841662000471866200020d565b60005b828110156200049b5784890151825560018201915060208501945060208101905062000474565b86831015620004bb5784890151620004b7601f891682620003ab565b8355505b6001600288020188555050505b505050505050565b61376980620004e06000396000f3fe6080604052600436106101355760003560e01c806399b23178116100ab578063b88d4fde1161006f578063b88d4fde1461044e578063c87b56dd14610477578063cc25e970146104b4578063d83fe095146104df578063e985e9c514610508578063eddc42691461054557610135565b806399b2317814610365578063a22cb4651461038e578063aeda852f146103b7578063b14f1afd146103f8578063b67878bb1461042357610135565b806323b872dd116100fd57806323b872dd146102455780633c3b0b4a1461026e57806342842e0e146102975780636352211e146102c057806370a08231146102fd57806395d89b411461033a57610135565b806301ffc9a71461013a57806306fdde0314610177578063081812fc146101a2578063095ea7b3146101df57806320bc312814610208575b600080fd5b34801561014657600080fd5b50610161600480360381019061015c919061296b565b610561565b60405161016e91906129b3565b60405180910390f35b34801561018357600080fd5b5061018c610643565b6040516101999190612a5e565b60405180910390f35b3480156101ae57600080fd5b506101c960048036038101906101c49190612ab6565b6106d5565b6040516101d69190612b24565b60405180910390f35b3480156101eb57600080fd5b5061020660048036038101906102019190612b6b565b6106f1565b005b34801561021457600080fd5b5061022f600480360381019061022a9190612bab565b610707565b60405161023c9190612be7565b60405180910390f35b34801561025157600080fd5b5061026c60048036038101906102679190612c02565b6108a4565b005b34801561027a57600080fd5b5061029560048036038101906102909190612ab6565b6109a6565b005b3480156102a357600080fd5b506102be60048036038101906102b99190612c02565b610aed565b005b3480156102cc57600080fd5b506102e760048036038101906102e29190612ab6565b610b0d565b6040516102f49190612b24565b60405180910390f35b34801561030957600080fd5b50610324600480360381019061031f9190612bab565b610b1f565b6040516103319190612be7565b60405180910390f35b34801561034657600080fd5b5061034f610bd9565b60405161035c9190612a5e565b60405180910390f35b34801561037157600080fd5b5061038c60048036038101906103879190612c55565b610c6b565b005b34801561039a57600080fd5b506103b560048036038101906103b09190612cc1565b610db3565b005b3480156103c357600080fd5b506103de60048036038101906103d99190612ab6565b610dc9565b6040516103ef959493929190612d01565b60405180910390f35b34801561040457600080fd5b5061040d610e2c565b60405161041a9190612e98565b60405180910390f35b34801561042f57600080fd5b5061043861108c565b6040516104459190612e98565b60405180910390f35b34801561045a57600080fd5b5061047560048036038101906104709190612fef565b61126c565b005b34801561048357600080fd5b5061049e60048036038101906104999190612ab6565b611289565b6040516104ab9190612a5e565b60405180910390f35b3480156104c057600080fd5b506104c96112f2565b6040516104d691906130d1565b60405180910390f35b3480156104eb57600080fd5b5061050660048036038101906105019190612ab6565b611318565b005b34801561051457600080fd5b5061052f600480360381019061052a91906130ec565b611648565b60405161053c91906129b3565b60405180910390f35b61055f600480360381019061055a9190612ab6565b6116dc565b005b60007f80ac58cd000000000000000000000000000000000000000000000000000000007bffffffffffffffffffffffffffffffffffffffffffffffffffffffff1916827bffffffffffffffffffffffffffffffffffffffffffffffffffffffff1916148061062c57507f5b5e139f000000000000000000000000000000000000000000000000000000007bffffffffffffffffffffffffffffffffffffffffffffffffffffffff1916827bffffffffffffffffffffffffffffffffffffffffffffffffffffffff1916145b8061063c575061063b826119d0565b5b9050919050565b6060600080546106529061315b565b80601f016020809104026020016040519081016040528092919081815260200182805461067e9061315b565b80156106cb5780601f106106a0576101008083540402835291602001916106cb565b820191906000526020600020905b8154815290600101906020018083116106ae57829003601f168201915b5050505050905090565b60006106e082611a3a565b506106ea82611ac2565b9050919050565b61070382826106fe611aff565b611b07565b5050565b60003373ffffffffffffffffffffffffffffffffffffffff16600660009054906101000a900473ffffffffffffffffffffffffffffffffffffffff1673ffffffffffffffffffffffffffffffffffffffff1614610799576040517f08c379a0000000000000000000000000000000000000000000000000000000008152600401610790906131d8565b60405180910390fd5b6000600760008154809291906107ae90613227565b9190505590506107be8382611b19565b6040518060a0016040528082815260200160008152602001600081526020016000151581526020018473ffffffffffffffffffffffffffffffffffffffff168152506008600083815260200190815260200160002060008201518160000155602082015181600101556040820151816002015560608201518160030160006101000a81548160ff02191690831515021790555060808201518160030160016101000a81548173ffffffffffffffffffffffffffffffffffffffff021916908373ffffffffffffffffffffffffffffffffffffffff16021790555090505080915050919050565b600073ffffffffffffffffffffffffffffffffffffffff168273ffffffffffffffffffffffffffffffffffffffff16036109165760006040517f64a0ae9200000000000000000000000000000000000000000000000000000000815260040161090d9190612b24565b60405180910390fd5b600061092a8383610925611aff565b611b37565b90508373ffffffffffffffffffffffffffffffffffffffff168173ffffffffffffffffffffffffffffffffffffffff16146109a0578382826040517f64283d7b0000000000000000000000000000000000000000000000000000000081526004016109979392919061326f565b60405180910390fd5b50505050565b3373ffffffffffffffffffffffffffffffffffffffff166008600083815260200190815260200160002060030160019054906101000a900473ffffffffffffffffffffffffffffffffffffffff1673ffffffffffffffffffffffffffffffffffffffff1614610a4a576040517f08c379a0000000000000000000000000000000000000000000000000000000008152600401610a4190613318565b60405180910390fd5b6000600860008381526020019081526020016000206002018190555060006008600083815260200190815260200160002060030160006101000a81548160ff021916908315150217905550600060086000838152602001908152602001600020600101819055507f7a45aab82100ed76ddfa1a786c9a380e8cfd8ba090c5ee57080127aabe243af18133604051610ae2929190613338565b60405180910390a150565b610b088383836040518060200160405280600081525061126c565b505050565b6000610b1882611a3a565b9050919050565b60008073ffffffffffffffffffffffffffffffffffffffff168273ffffffffffffffffffffffffffffffffffffffff1603610b925760006040517f89c62b64000000000000000000000000000000000000000000000000000000008152600401610b899190612b24565b60405180910390fd5b600360008373ffffffffffffffffffffffffffffffffffffffff1673ffffffffffffffffffffffffffffffffffffffff168152602001908152602001600020549050919050565b606060018054610be89061315b565b80601f0160208091040260200160405190810160405280929190818152602001828054610c149061315b565b8015610c615780601f10610c3657610100808354040283529160200191610c61565b820191906000526020600020905b815481529060010190602001808311610c4457829003601f168201915b5050505050905090565b3373ffffffffffffffffffffffffffffffffffffffff166008600084815260200190815260200160002060030160019054906101000a900473ffffffffffffffffffffffffffffffffffffffff1673ffffffffffffffffffffffffffffffffffffffff1614610d0f576040517f08c379a0000000000000000000000000000000000000000000000000000000008152600401610d0690613318565b60405180910390fd5b80600860008481526020019081526020016000206002018190555060016008600084815260200190815260200160002060030160006101000a81548160ff0219169083151502179055504260086000848152602001908152602001600020600101819055507f88d30ba98d994265a418ab2a3d572e073d1a33d74c3ad4a0da06412b8b39b9ad828233604051610da793929190613361565b60405180910390a15050565b610dc5610dbe611aff565b8383611d51565b5050565b60086020528060005260406000206000915090508060000154908060010154908060020154908060030160009054906101000a900460ff16908060030160019054906101000a900473ffffffffffffffffffffffffffffffffffffffff16905085565b60606000805b600754811015610ec7573373ffffffffffffffffffffffffffffffffffffffff166008600083815260200190815260200160002060030160019054906101000a900473ffffffffffffffffffffffffffffffffffffffff1673ffffffffffffffffffffffffffffffffffffffff1603610eb4578180610eb090613227565b9250505b8080610ebf90613227565b915050610e32565b5060008167ffffffffffffffff811115610ee457610ee3612ec4565b5b604051908082528060200260200182016040528015610f1d57816020015b610f0a6128b8565b815260200190600190039081610f025790505b5090506000805b600754811015611082573373ffffffffffffffffffffffffffffffffffffffff166008600083815260200190815260200160002060030160019054906101000a900473ffffffffffffffffffffffffffffffffffffffff1673ffffffffffffffffffffffffffffffffffffffff160361106f57600860008281526020019081526020016000206040518060a00160405290816000820154815260200160018201548152602001600282015481526020016003820160009054906101000a900460ff161515151581526020016003820160019054906101000a900473ffffffffffffffffffffffffffffffffffffffff1673ffffffffffffffffffffffffffffffffffffffff1673ffffffffffffffffffffffffffffffffffffffff168152505083838061105090613227565b94508151811061106357611062613398565b5b60200260200101819052505b808061107a90613227565b915050610f24565b5081935050505090565b60606000805b6007548110156110e7576008600082815260200190815260200160002060030160009054906101000a900460ff16156110d45781806110d090613227565b9250505b80806110df90613227565b915050611092565b5060008167ffffffffffffffff81111561110457611103612ec4565b5b60405190808252806020026020018201604052801561113d57816020015b61112a6128b8565b8152602001906001900390816111225790505b5090506000805b600754811015611262576008600082815260200190815260200160002060030160009054906101000a900460ff161561124f57600860008281526020019081526020016000206040518060a00160405290816000820154815260200160018201548152602001600282015481526020016003820160009054906101000a900460ff161515151581526020016003820160019054906101000a900473ffffffffffffffffffffffffffffffffffffffff1673ffffffffffffffffffffffffffffffffffffffff1673ffffffffffffffffffffffffffffffffffffffff168152505083838061123090613227565b94508151811061124357611242613398565b5b60200260200101819052505b808061125a90613227565b915050611144565b5081935050505090565b6112778484846108a4565b61128384848484611ec0565b50505050565b606061129482611a3a565b50600061129f612077565b905060008151116112bf57604051806020016040528060008152506112ea565b806112c98461208e565b6040516020016112da929190613403565b6040516020818303038152906040525b915050919050565b600a60009054906101000a900473ffffffffffffffffffffffffffffffffffffffff1681565b60006008600083815260200190815260200160002060020154905060006008600084815260200190815260200160002060030160019054906101000a900473ffffffffffffffffffffffffffffffffffffffff16905060006103e8836009546008600088815260200190815260200160002060010154426113999190613427565b6113a3919061345b565b6113ad919061345b565b6113b791906134cc565b9050828111156113c5578290505b600081846113d39190613427565b90506113e083338761215c565b600a60009054906101000a900473ffffffffffffffffffffffffffffffffffffffff1673ffffffffffffffffffffffffffffffffffffffff166323b872dd3385846040518463ffffffff1660e01b815260040161143f939291906134fd565b6020604051808303816000875af115801561145e573d6000803e3d6000fd5b505050506040513d601f19601f820116820180604052508101906114829190613549565b50600a60009054906101000a900473ffffffffffffffffffffffffffffffffffffffff1673ffffffffffffffffffffffffffffffffffffffff166323b872dd33600660009054906101000a900473ffffffffffffffffffffffffffffffffffffffff16856040518463ffffffff1660e01b8152600401611504939291906134fd565b6020604051808303816000875af1158015611523573d6000803e3d6000fd5b505050506040513d601f19601f820116820180604052508101906115479190613549565b50336008600087815260200190815260200160002060030160016101000a81548173ffffffffffffffffffffffffffffffffffffffff021916908373ffffffffffffffffffffffffffffffffffffffff16021790555060006008600087815260200190815260200160002060030160006101000a81548160ff02191690831515021790555060006008600087815260200190815260200160002060010181905550600060086000878152602001908152602001600020600201819055507f515b6b0792eee5a98a7d8ffcc7852b6cdb5f431ee6707c6576bf9367bb5139e5858585336040516116399493929190613576565b60405180910390a15050505050565b6000600560008473ffffffffffffffffffffffffffffffffffffffff1673ffffffffffffffffffffffffffffffffffffffff16815260200190815260200160002060008373ffffffffffffffffffffffffffffffffffffffff1673ffffffffffffffffffffffffffffffffffffffff16815260200190815260200160002060009054906101000a900460ff16905092915050565b60006008600083815260200190815260200160002060020154905060006008600084815260200190815260200160002060030160019054906101000a900473ffffffffffffffffffffffffffffffffffffffff169050670de0b6b3a764000082611746919061345b565b341015611788576040517f08c379a000000000000000000000000000000000000000000000000000000000815260040161177f90613607565b60405180910390fd5b60006103e8836009546008600088815260200190815260200160002060010154426117b39190613427565b6117bd919061345b565b6117c7919061345b565b6117d191906134cc565b9050828111156117df578290505b600081846117ed9190613427565b90506117fa83338761215c565b8273ffffffffffffffffffffffffffffffffffffffff166108fc670de0b6b3a764000083611828919061345b565b9081150290604051600060405180830381858888f19350505050158015611853573d6000803e3d6000fd5b50600660009054906101000a900473ffffffffffffffffffffffffffffffffffffffff1673ffffffffffffffffffffffffffffffffffffffff166108fc670de0b6b3a7640000846118a4919061345b565b9081150290604051600060405180830381858888f193505050501580156118cf573d6000803e3d6000fd5b50336008600087815260200190815260200160002060030160016101000a81548173ffffffffffffffffffffffffffffffffffffffff021916908373ffffffffffffffffffffffffffffffffffffffff16021790555060006008600087815260200190815260200160002060030160006101000a81548160ff02191690831515021790555060006008600087815260200190815260200160002060010181905550600060086000878152602001908152602001600020600201819055507f515b6b0792eee5a98a7d8ffcc7852b6cdb5f431ee6707c6576bf9367bb5139e5858585336040516119c19493929190613576565b60405180910390a15050505050565b60007f01ffc9a7000000000000000000000000000000000000000000000000000000007bffffffffffffffffffffffffffffffffffffffffffffffffffffffff1916827bffffffffffffffffffffffffffffffffffffffffffffffffffffffff1916149050919050565b600080611a46836122c9565b9050600073ffffffffffffffffffffffffffffffffffffffff168173ffffffffffffffffffffffffffffffffffffffff1603611ab957826040517f7e273289000000000000000000000000000000000000000000000000000000008152600401611ab09190612be7565b60405180910390fd5b80915050919050565b60006004600083815260200190815260200160002060009054906101000a900473ffffffffffffffffffffffffffffffffffffffff169050919050565b600033905090565b611b148383836001612306565b505050565b611b338282604051806020016040528060008152506124cb565b5050565b600080611b43846122c9565b9050600073ffffffffffffffffffffffffffffffffffffffff168373ffffffffffffffffffffffffffffffffffffffff1614611b8557611b848184866124e7565b5b600073ffffffffffffffffffffffffffffffffffffffff168173ffffffffffffffffffffffffffffffffffffffff1614611c1657611bc7600085600080612306565b6001600360008373ffffffffffffffffffffffffffffffffffffffff1673ffffffffffffffffffffffffffffffffffffffff168152602001908152602001600020600082825403925050819055505b600073ffffffffffffffffffffffffffffffffffffffff168573ffffffffffffffffffffffffffffffffffffffff1614611c99576001600360008773ffffffffffffffffffffffffffffffffffffffff1673ffffffffffffffffffffffffffffffffffffffff168152602001908152602001600020600082825401925050819055505b846002600086815260200190815260200160002060006101000a81548173ffffffffffffffffffffffffffffffffffffffff021916908373ffffffffffffffffffffffffffffffffffffffff160217905550838573ffffffffffffffffffffffffffffffffffffffff168273ffffffffffffffffffffffffffffffffffffffff167fddf252ad1be2c89b69c2b068fc378daa952ba7f163c4a11628f55a4df523b3ef60405160405180910390a4809150509392505050565b600073ffffffffffffffffffffffffffffffffffffffff168273ffffffffffffffffffffffffffffffffffffffff1603611dc257816040517f5b08ba18000000000000000000000000000000000000000000000000000000008152600401611db99190612b24565b60405180910390fd5b80600560008573ffffffffffffffffffffffffffffffffffffffff1673ffffffffffffffffffffffffffffffffffffffff16815260200190815260200160002060008473ffffffffffffffffffffffffffffffffffffffff1673ffffffffffffffffffffffffffffffffffffffff16815260200190815260200160002060006101000a81548160ff0219169083151502179055508173ffffffffffffffffffffffffffffffffffffffff168373ffffffffffffffffffffffffffffffffffffffff167f17307eab39ab6107e8899845ad3d59bd9653f200f220920489ca2b5937696c3183604051611eb391906129b3565b60405180910390a3505050565b60008373ffffffffffffffffffffffffffffffffffffffff163b1115612071578273ffffffffffffffffffffffffffffffffffffffff1663150b7a02611f04611aff565b8685856040518563ffffffff1660e01b8152600401611f26949392919061367c565b6020604051808303816000875af1925050508015611f6257506040513d601f19601f82011682018060405250810190611f5f91906136dd565b60015b611fe6573d8060008114611f92576040519150601f19603f3d011682016040523d82523d6000602084013e611f97565b606091505b506000815103611fde57836040517f64a0ae92000000000000000000000000000000000000000000000000000000008152600401611fd59190612b24565b60405180910390fd5b805181602001fd5b63150b7a0260e01b7bffffffffffffffffffffffffffffffffffffffffffffffffffffffff1916817bffffffffffffffffffffffffffffffffffffffffffffffffffffffff19161461206f57836040517f64a0ae920000000000000000000000000000000000000000000000000000000081526004016120669190612b24565b60405180910390fd5b505b50505050565b606060405180602001604052806000815250905090565b60606000600161209d846125ab565b01905060008167ffffffffffffffff8111156120bc576120bb612ec4565b5b6040519080825280601f01601f1916602001820160405280156120ee5781602001600182028036833780820191505090505b509050600082602001820190505b600115612151578080600190039150507f3031323334353637383961626364656600000000000000000000000000000000600a86061a8153600a85816121455761214461349d565b5b049450600085036120fc575b819350505050919050565b600073ffffffffffffffffffffffffffffffffffffffff168273ffffffffffffffffffffffffffffffffffffffff16036121ce5760006040517f64a0ae920000000000000000000000000000000000000000000000000000000081526004016121c59190612b24565b60405180910390fd5b60006121dc83836000611b37565b9050600073ffffffffffffffffffffffffffffffffffffffff168173ffffffffffffffffffffffffffffffffffffffff160361224f57816040517f7e2732890000000000000000000000000000000000000000000000000000000081526004016122469190612be7565b60405180910390fd5b8373ffffffffffffffffffffffffffffffffffffffff168173ffffffffffffffffffffffffffffffffffffffff16146122c3578382826040517f64283d7b0000000000000000000000000000000000000000000000000000000081526004016122ba9392919061326f565b60405180910390fd5b50505050565b60006002600083815260200190815260200160002060009054906101000a900473ffffffffffffffffffffffffffffffffffffffff169050919050565b808061233f5750600073ffffffffffffffffffffffffffffffffffffffff168273ffffffffffffffffffffffffffffffffffffffff1614155b1561247357600061234f84611a3a565b9050600073ffffffffffffffffffffffffffffffffffffffff168373ffffffffffffffffffffffffffffffffffffffff16141580156123ba57508273ffffffffffffffffffffffffffffffffffffffff168173ffffffffffffffffffffffffffffffffffffffff1614155b80156123cd57506123cb8184611648565b155b1561240f57826040517fa9fbf51f0000000000000000000000000000000000000000000000000000000081526004016124069190612b24565b60405180910390fd5b811561247157838573ffffffffffffffffffffffffffffffffffffffff168273ffffffffffffffffffffffffffffffffffffffff167f8c5be1e5ebec7d5bd14f71427d1e84f3dd0314c0f7b2291e5b200ac8c7c3b92560405160405180910390a45b505b836004600085815260200190815260200160002060006101000a81548173ffffffffffffffffffffffffffffffffffffffff021916908373ffffffffffffffffffffffffffffffffffffffff16021790555050505050565b6124d583836126fe565b6124e26000848484611ec0565b505050565b6124f28383836127f7565b6125a657600073ffffffffffffffffffffffffffffffffffffffff168373ffffffffffffffffffffffffffffffffffffffff160361256757806040517f7e27328900000000000000000000000000000000000000000000000000000000815260040161255e9190612be7565b60405180910390fd5b81816040517f177e802f00000000000000000000000000000000000000000000000000000000815260040161259d92919061370a565b60405180910390fd5b505050565b600080600090507a184f03e93ff9f4daa797ed6e38ed64bf6a1f0100000000000000008310612609577a184f03e93ff9f4daa797ed6e38ed64bf6a1f01000000000000000083816125ff576125fe61349d565b5b0492506040810190505b6d04ee2d6d415b85acef81000000008310612646576d04ee2d6d415b85acef8100000000838161263c5761263b61349d565b5b0492506020810190505b662386f26fc10000831061267557662386f26fc10000838161266b5761266a61349d565b5b0492506010810190505b6305f5e100831061269e576305f5e10083816126945761269361349d565b5b0492506008810190505b61271083106126c35761271083816126b9576126b861349d565b5b0492506004810190505b606483106126e657606483816126dc576126db61349d565b5b0492506002810190505b600a83106126f5576001810190505b80915050919050565b600073ffffffffffffffffffffffffffffffffffffffff168273ffffffffffffffffffffffffffffffffffffffff16036127705760006040517f64a0ae920000000000000000000000000000000000000000000000000000000081526004016127679190612b24565b60405180910390fd5b600061277e83836000611b37565b9050600073ffffffffffffffffffffffffffffffffffffffff168173ffffffffffffffffffffffffffffffffffffffff16146127f25760006040517f73c6ac6e0000000000000000000000000000000000000000000000000000000081526004016127e99190612b24565b60405180910390fd5b505050565b60008073ffffffffffffffffffffffffffffffffffffffff168373ffffffffffffffffffffffffffffffffffffffff16141580156128af57508273ffffffffffffffffffffffffffffffffffffffff168473ffffffffffffffffffffffffffffffffffffffff161480612870575061286f8484611648565b5b806128ae57508273ffffffffffffffffffffffffffffffffffffffff1661289683611ac2565b73ffffffffffffffffffffffffffffffffffffffff16145b5b90509392505050565b6040518060a00160405280600081526020016000815260200160008152602001600015158152602001600073ffffffffffffffffffffffffffffffffffffffff1681525090565b6000604051905090565b600080fd5b600080fd5b60007fffffffff0000000000000000000000000000000000000000000000000000000082169050919050565b61294881612913565b811461295357600080fd5b50565b6000813590506129658161293f565b92915050565b60006020828403121561298157612980612909565b5b600061298f84828501612956565b91505092915050565b60008115159050919050565b6129ad81612998565b82525050565b60006020820190506129c860008301846129a4565b92915050565b600081519050919050565b600082825260208201905092915050565b60005b83811015612a085780820151818401526020810190506129ed565b60008484015250505050565b6000601f19601f8301169050919050565b6000612a30826129ce565b612a3a81856129d9565b9350612a4a8185602086016129ea565b612a5381612a14565b840191505092915050565b60006020820190508181036000830152612a788184612a25565b905092915050565b6000819050919050565b612a9381612a80565b8114612a9e57600080fd5b50565b600081359050612ab081612a8a565b92915050565b600060208284031215612acc57612acb612909565b5b6000612ada84828501612aa1565b91505092915050565b600073ffffffffffffffffffffffffffffffffffffffff82169050919050565b6000612b0e82612ae3565b9050919050565b612b1e81612b03565b82525050565b6000602082019050612b396000830184612b15565b92915050565b612b4881612b03565b8114612b5357600080fd5b50565b600081359050612b6581612b3f565b92915050565b60008060408385031215612b8257612b81612909565b5b6000612b9085828601612b56565b9250506020612ba185828601612aa1565b9150509250929050565b600060208284031215612bc157612bc0612909565b5b6000612bcf84828501612b56565b91505092915050565b612be181612a80565b82525050565b6000602082019050612bfc6000830184612bd8565b92915050565b600080600060608486031215612c1b57612c1a612909565b5b6000612c2986828701612b56565b9350506020612c3a86828701612b56565b9250506040612c4b86828701612aa1565b9150509250925092565b60008060408385031215612c6c57612c6b612909565b5b6000612c7a85828601612aa1565b9250506020612c8b85828601612aa1565b9150509250929050565b612c9e81612998565b8114612ca957600080fd5b50565b600081359050612cbb81612c95565b92915050565b60008060408385031215612cd857612cd7612909565b5b6000612ce685828601612b56565b9250506020612cf785828601612cac565b9150509250929050565b600060a082019050612d166000830188612bd8565b612d236020830187612bd8565b612d306040830186612bd8565b612d3d60608301856129a4565b612d4a6080830184612b15565b9695505050505050565b600081519050919050565b600082825260208201905092915050565b6000819050602082019050919050565b612d8981612a80565b82525050565b612d9881612998565b82525050565b612da781612b03565b82525050565b60a082016000820151612dc36000850182612d80565b506020820151612dd66020850182612d80565b506040820151612de96040850182612d80565b506060820151612dfc6060850182612d8f565b506080820151612e0f6080850182612d9e565b50505050565b6000612e218383612dad565b60a08301905092915050565b6000602082019050919050565b6000612e4582612d54565b612e4f8185612d5f565b9350612e5a83612d70565b8060005b83811015612e8b578151612e728882612e15565b9750612e7d83612e2d565b925050600181019050612e5e565b5085935050505092915050565b60006020820190508181036000830152612eb28184612e3a565b905092915050565b600080fd5b600080fd5b7f4e487b7100000000000000000000000000000000000000000000000000000000600052604160045260246000fd5b612efc82612a14565b810181811067ffffffffffffffff82111715612f1b57612f1a612ec4565b5b80604052505050565b6000612f2e6128ff565b9050612f3a8282612ef3565b919050565b600067ffffffffffffffff821115612f5a57612f59612ec4565b5b612f6382612a14565b9050602081019050919050565b82818337600083830152505050565b6000612f92612f8d84612f3f565b612f24565b905082815260208101848484011115612fae57612fad612ebf565b5b612fb9848285612f70565b509392505050565b600082601f830112612fd657612fd5612eba565b5b8135612fe6848260208601612f7f565b91505092915050565b6000806000806080858703121561300957613008612909565b5b600061301787828801612b56565b945050602061302887828801612b56565b935050604061303987828801612aa1565b925050606085013567ffffffffffffffff81111561305a5761305961290e565b5b61306687828801612fc1565b91505092959194509250565b6000819050919050565b600061309761309261308d84612ae3565b613072565b612ae3565b9050919050565b60006130a98261307c565b9050919050565b60006130bb8261309e565b9050919050565b6130cb816130b0565b82525050565b60006020820190506130e660008301846130c2565b92915050565b6000806040838503121561310357613102612909565b5b600061311185828601612b56565b925050602061312285828601612b56565b9150509250929050565b7f4e487b7100000000000000000000000000000000000000000000000000000000600052602260045260246000fd5b6000600282049050600182168061317357607f821691505b6020821081036131865761318561312c565b5b50919050565b7f496e76616c6964206465706c6f79657200000000000000000000000000000000600082015250565b60006131c26010836129d9565b91506131cd8261318c565b602082019050919050565b600060208201905081810360008301526131f1816131b5565b9050919050565b7f4e487b7100000000000000000000000000000000000000000000000000000000600052601160045260246000fd5b600061323282612a80565b91507fffffffffffffffffffffffffffffffffffffffffffffffffffffffffffffffff8203613264576132636131f8565b5b600182019050919050565b60006060820190506132846000830186612b15565b6132916020830185612bd8565b61329e6040830184612b15565b949350505050565b7f596f7520617265206e6f7420746865206f776e6572206f66207468697320686f60008201527f7573650000000000000000000000000000000000000000000000000000000000602082015250565b60006133026023836129d9565b915061330d826132a6565b604082019050919050565b60006020820190508181036000830152613331816132f5565b9050919050565b600060408201905061334d6000830185612bd8565b61335a6020830184612b15565b9392505050565b60006060820190506133766000830186612bd8565b6133836020830185612bd8565b6133906040830184612b15565b949350505050565b7f4e487b7100000000000000000000000000000000000000000000000000000000600052603260045260246000fd5b600081905092915050565b60006133dd826129ce565b6133e781856133c7565b93506133f78185602086016129ea565b80840191505092915050565b600061340f82856133d2565b915061341b82846133d2565b91508190509392505050565b600061343282612a80565b915061343d83612a80565b9250828203905081811115613455576134546131f8565b5b92915050565b600061346682612a80565b915061347183612a80565b925082820261347f81612a80565b91508282048414831517613496576134956131f8565b5b5092915050565b7f4e487b7100000000000000000000000000000000000000000000000000000000600052601260045260246000fd5b60006134d782612a80565b91506134e283612a80565b9250826134f2576134f161349d565b5b828204905092915050565b60006060820190506135126000830186612b15565b61351f6020830185612b15565b61352c6040830184612bd8565b949350505050565b60008151905061354381612c95565b92915050565b60006020828403121561355f5761355e612909565b5b600061356d84828501613534565b91505092915050565b600060808201905061358b6000830187612bd8565b6135986020830186612bd8565b6135a56040830185612b15565b6135b26060830184612b15565b95945050505050565b7f496e73756666696369656e742066756e64732073656e74000000000000000000600082015250565b60006135f16017836129d9565b91506135fc826135bb565b602082019050919050565b60006020820190508181036000830152613620816135e4565b9050919050565b600081519050919050565b600082825260208201905092915050565b600061364e82613627565b6136588185613632565b93506136688185602086016129ea565b61367181612a14565b840191505092915050565b60006080820190506136916000830187612b15565b61369e6020830186612b15565b6136ab6040830185612bd8565b81810360608301526136bd8184613643565b905095945050505050565b6000815190506136d78161293f565b92915050565b6000602082840312156136f3576136f2612909565b5b6000613701848285016136c8565b91505092915050565b600060408201905061371f6000830185612b15565b61372c6020830184612bd8565b939250505056fea264697066735822122018fff22c4d6e896d0d9159ce81c2d75d925248a9eb85a0bb3896a62ef39e4ee664736f6c6343000814003360806040523480156200001157600080fd5b506040518060400160405280600881526020017f455243506f696e740000000000000000000000000000000000000000000000008152506040518060400160405280600381526020017f455054000000000000000000000000000000000000000000000000000000000081525081600390816200008f919062000365565b508060049081620000a1919062000365565b50505033600560006101000a81548173ffffffffffffffffffffffffffffffffffffffff021916908373ffffffffffffffffffffffffffffffffffffffff1602179055506200044c565b600081519050919050565b7f4e487b7100000000000000000000000000000000000000000000000000000000600052604160045260246000fd5b7f4e487b7100000000000000000000000000000000000000000000000000000000600052602260045260246000fd5b600060028204905060018216806200016d57607f821691505b60208210810362000183576200018262000125565b5b50919050565b60008190508160005260206000209050919050565b60006020601f8301049050919050565b600082821b905092915050565b600060088302620001ed7fffffffffffffffffffffffffffffffffffffffffffffffffffffffffffffffff82620001ae565b620001f98683620001ae565b95508019841693508086168417925050509392505050565b6000819050919050565b6000819050919050565b600062000246620002406200023a8462000211565b6200021b565b62000211565b9050919050565b6000819050919050565b620002628362000225565b6200027a62000271826200024d565b848454620001bb565b825550505050565b600090565b6200029162000282565b6200029e81848462000257565b505050565b5b81811015620002c657620002ba60008262000287565b600181019050620002a4565b5050565b601f8211156200031557620002df8162000189565b620002ea846200019e565b81016020851015620002fa578190505b6200031262000309856200019e565b830182620002a3565b50505b505050565b600082821c905092915050565b60006200033a600019846008026200031a565b1980831691505092915050565b600062000355838362000327565b9150826002028217905092915050565b6200037082620000eb565b67ffffffffffffffff8111156200038c576200038b620000f6565b5b62000398825462000154565b620003a5828285620002ca565b600060209050601f831160018114620003dd5760008415620003c8578287015190505b620003d4858262000347565b86555062000444565b601f198416620003ed8662000189565b60005b828110156200041757848901518255600182019150602085019450602081019050620003f0565b8683101562000437578489015162000433601f89168262000327565b8355505b6001600288020188555050505b505050505050565b611246806200045c6000396000f3fe6080604052600436106100a75760003560e01c806370a082311161006457806370a08231146101d057806395d89b411461020d578063a9059cbb14610238578063ba9c463714610275578063dd62ed3e146102a0578063ee16a7e6146102dd576100a7565b806306fdde03146100ac578063095ea7b3146100d757806318160ddd1461011457806321b01e571461013f57806323b872dd14610168578063313ce567146101a5575b600080fd5b3480156100b857600080fd5b506100c16102e7565b6040516100ce9190610da2565b60405180910390f35b3480156100e357600080fd5b506100fe60048036038101906100f99190610e5d565b610379565b60405161010b9190610eb8565b60405180910390f35b34801561012057600080fd5b5061012961039c565b6040516101369190610ee2565b60405180910390f35b34801561014b57600080fd5b5061016660048036038101906101619190610efd565b6103a6565b005b34801561017457600080fd5b5061018f600480360381019061018a9190610f2a565b610446565b60405161019c9190610eb8565b60405180910390f35b3480156101b157600080fd5b506101ba610475565b6040516101c79190610f99565b60405180910390f35b3480156101dc57600080fd5b506101f760048036038101906101f29190610fb4565b61047e565b6040516102049190610ee2565b60405180910390f35b34801561021957600080fd5b506102226104c6565b60405161022f9190610da2565b60405180910390f35b34801561024457600080fd5b5061025f600480360381019061025a9190610e5d565b610558565b60405161026c9190610eb8565b60405180910390f35b34801561028157600080fd5b5061028a61057b565b6040516102979190610ee2565b60405180910390f35b3480156102ac57600080fd5b506102c760048036038101906102c29190610fe1565b61058b565b6040516102d49190610ee2565b60405180910390f35b6102e5610612565b005b6060600380546102f690611050565b80601f016020809104026020016040519081016040528092919081815260200182805461032290611050565b801561036f5780601f106103445761010080835404028352916020019161036f565b820191906000526020600020905b81548152906001019060200180831161035257829003601f168201915b5050505050905090565b600080610384610670565b9050610391818585610678565b600191505092915050565b6000600254905090565b6103b0338261068a565b3373ffffffffffffffffffffffffffffffffffffffff166108fc670de0b6b3a7640000836103de91906110b0565b9081150290604051600060405180830381858888f19350505050158015610409573d6000803e3d6000fd5b507f550acca041a653e46b44f19babb7c79170c663fba893e9bed8d14d5102662802338260405161043b929190611101565b60405180910390a150565b600080610451610670565b905061045e85828561070c565b6104698585856107a0565b60019150509392505050565b60006012905090565b60008060008373ffffffffffffffffffffffffffffffffffffffff1673ffffffffffffffffffffffffffffffffffffffff168152602001908152602001600020549050919050565b6060600480546104d590611050565b80601f016020809104026020016040519081016040528092919081815260200182805461050190611050565b801561054e5780601f106105235761010080835404028352916020019161054e565b820191906000526020600020905b81548152906001019060200180831161053157829003601f168201915b5050505050905090565b600080610563610670565b90506105708185856107a0565b600191505092915050565b60006105863361047e565b905090565b6000600160008473ffffffffffffffffffffffffffffffffffffffff1673ffffffffffffffffffffffffffffffffffffffff16815260200190815260200160002060008373ffffffffffffffffffffffffffffffffffffffff1673ffffffffffffffffffffffffffffffffffffffff16815260200190815260200160002054905092915050565b6000670de0b6b3a7640000346106289190611159565b90506106343382610894565b7fe0a1f9be8a2379331dbd8cce589f2c4106f5ae3ede102ef1ed9766aa980d8ec23382604051610665929190611101565b60405180910390a150565b600033905090565b6106858383836001610916565b505050565b600073ffffffffffffffffffffffffffffffffffffffff168273ffffffffffffffffffffffffffffffffffffffff16036106fc5760006040517f96c6fd1e0000000000000000000000000000000000000000000000000000000081526004016106f3919061118a565b60405180910390fd5b61070882600083610aed565b5050565b6000610718848461058b565b90507fffffffffffffffffffffffffffffffffffffffffffffffffffffffffffffffff811461079a578181101561078a578281836040517ffb8f41b2000000000000000000000000000000000000000000000000000000008152600401610781939291906111a5565b60405180910390fd5b61079984848484036000610916565b5b50505050565b600073ffffffffffffffffffffffffffffffffffffffff168373ffffffffffffffffffffffffffffffffffffffff16036108125760006040517f96c6fd1e000000000000000000000000000000000000000000000000000000008152600401610809919061118a565b60405180910390fd5b600073ffffffffffffffffffffffffffffffffffffffff168273ffffffffffffffffffffffffffffffffffffffff16036108845760006040517fec442f0500000000000000000000000000000000000000000000000000000000815260040161087b919061118a565b60405180910390fd5b61088f838383610aed565b505050565b600073ffffffffffffffffffffffffffffffffffffffff168273ffffffffffffffffffffffffffffffffffffffff16036109065760006040517fec442f050000000000000000000000000000000000000000000000000000000081526004016108fd919061118a565b60405180910390fd5b61091260008383610aed565b5050565b600073ffffffffffffffffffffffffffffffffffffffff168473ffffffffffffffffffffffffffffffffffffffff16036109885760006040517fe602df0500000000000000000000000000000000000000000000000000000000815260040161097f919061118a565b60405180910390fd5b600073ffffffffffffffffffffffffffffffffffffffff168373ffffffffffffffffffffffffffffffffffffffff16036109fa5760006040517f94280d620000000000000000000000000000000000000000000000000000000081526004016109f1919061118a565b60405180910390fd5b81600160008673ffffffffffffffffffffffffffffffffffffffff1673ffffffffffffffffffffffffffffffffffffffff16815260200190815260200160002060008573ffffffffffffffffffffffffffffffffffffffff1673ffffffffffffffffffffffffffffffffffffffff168152602001908152602001600020819055508015610ae7578273ffffffffffffffffffffffffffffffffffffffff168473ffffffffffffffffffffffffffffffffffffffff167f8c5be1e5ebec7d5bd14f71427d1e84f3dd0314c0f7b2291e5b200ac8c7c3b92584604051610ade9190610ee2565b60405180910390a35b50505050565b600073ffffffffffffffffffffffffffffffffffffffff168373ffffffffffffffffffffffffffffffffffffffff1603610b3f578060026000828254610b3391906111dc565b92505081905550610c12565b60008060008573ffffffffffffffffffffffffffffffffffffffff1673ffffffffffffffffffffffffffffffffffffffff16815260200190815260200160002054905081811015610bcb578381836040517fe450d38c000000000000000000000000000000000000000000000000000000008152600401610bc2939291906111a5565b60405180910390fd5b8181036000808673ffffffffffffffffffffffffffffffffffffffff1673ffffffffffffffffffffffffffffffffffffffff16815260200190815260200160002081905550505b600073ffffffffffffffffffffffffffffffffffffffff168273ffffffffffffffffffffffffffffffffffffffff1603610c5b5780600260008282540392505081905550610ca8565b806000808473ffffffffffffffffffffffffffffffffffffffff1673ffffffffffffffffffffffffffffffffffffffff168152602001908152602001600020600082825401925050819055505b8173ffffffffffffffffffffffffffffffffffffffff168373ffffffffffffffffffffffffffffffffffffffff167fddf252ad1be2c89b69c2b068fc378daa952ba7f163c4a11628f55a4df523b3ef83604051610d059190610ee2565b60405180910390a3505050565b600081519050919050565b600082825260208201905092915050565b60005b83811015610d4c578082015181840152602081019050610d31565b60008484015250505050565b6000601f19601f8301169050919050565b6000610d7482610d12565b610d7e8185610d1d565b9350610d8e818560208601610d2e565b610d9781610d58565b840191505092915050565b60006020820190508181036000830152610dbc8184610d69565b905092915050565b600080fd5b600073ffffffffffffffffffffffffffffffffffffffff82169050919050565b6000610df482610dc9565b9050919050565b610e0481610de9565b8114610e0f57600080fd5b50565b600081359050610e2181610dfb565b92915050565b6000819050919050565b610e3a81610e27565b8114610e4557600080fd5b50565b600081359050610e5781610e31565b92915050565b60008060408385031215610e7457610e73610dc4565b5b6000610e8285828601610e12565b9250506020610e9385828601610e48565b9150509250929050565b60008115159050919050565b610eb281610e9d565b82525050565b6000602082019050610ecd6000830184610ea9565b92915050565b610edc81610e27565b82525050565b6000602082019050610ef76000830184610ed3565b92915050565b600060208284031215610f1357610f12610dc4565b5b6000610f2184828501610e48565b91505092915050565b600080600060608486031215610f4357610f42610dc4565b5b6000610f5186828701610e12565b9350506020610f6286828701610e12565b9250506040610f7386828701610e48565b9150509250925092565b600060ff82169050919050565b610f9381610f7d565b82525050565b6000602082019050610fae6000830184610f8a565b92915050565b600060208284031215610fca57610fc9610dc4565b5b6000610fd884828501610e12565b91505092915050565b60008060408385031215610ff857610ff7610dc4565b5b600061100685828601610e12565b925050602061101785828601610e12565b9150509250929050565b7f4e487b7100000000000000000000000000000000000000000000000000000000600052602260045260246000fd5b6000600282049050600182168061106857607f821691505b60208210810361107b5761107a611021565b5b50919050565b7f4e487b7100000000000000000000000000000000000000000000000000000000600052601160045260246000fd5b60006110bb82610e27565b91506110c683610e27565b92508282026110d481610e27565b915082820484148315176110eb576110ea611081565b5b5092915050565b6110fb81610de9565b82525050565b600060408201905061111660008301856110f2565b6111236020830184610ed3565b9392505050565b7f4e487b7100000000000000000000000000000000000000000000000000000000600052601260045260246000fd5b600061116482610e27565b915061116f83610e27565b92508261117f5761117e61112a565b5b828204905092915050565b600060208201905061119f60008301846110f2565b92915050565b60006060820190506111ba60008301866110f2565b6111c76020830185610ed3565b6111d46040830184610ed3565b949350505050565b60006111e782610e27565b91506111f283610e27565b925082820190508082111561120a57611209611081565b5b9291505056fea2646970667358221220da9dd542f74178b823c3d152b71d14b624ea6e42ed07f272e2bb0d88e46ed0e864736f6c63430008140033",
  "linkReferences": {},
  "deployedLinkReferences": {}
}