{
  "_format": "hh-sol-artifact-1",
  "contractName": "ERCPoint",
  "sourceName": "contracts/ERCPoint.sol",
  "abi": [
    {
      "inputs": [],
      "stateMutability": "nonpayable",
      "type": "constructor"
    },
    {
      "inputs": [
        {
          "internalType": "address",
          "name": "spender",
          "type": "address"
        },
        {
          "internalType": "uint256",
          "name": "allowance",
          "type": "uint256"
        },
        {
          "internalType": "uint256",
          "name": "needed",
          "type": "uint256"
        }
      ],
      "name": "ERC20InsufficientAllowance",
      "type": "error"
    },
    {
      "inputs": [
        {
          "internalType": "address",
          "name": "sender",
          "type": "address"
        },
        {
          "internalType": "uint256",
          "name": "balance",
          "type": "uint256"
        },
        {
          "internalType": "uint256",
          "name": "needed",
          "type": "uint256"
        }
      ],
      "name": "ERC20InsufficientBalance",
      "type": "error"
    },
    {
      "inputs": [
        {
          "internalType": "address",
          "name": "approver",
          "type": "address"
        }
      ],
      "name": "ERC20InvalidApprover",
      "type": "error"
    },
    {
      "inputs": [
        {
          "internalType": "address",
          "name": "receiver",
          "type": "address"
        }
      ],
      "name": "ERC20InvalidReceiver",
      "type": "error"
    },
    {
      "inputs": [
        {
          "internalType": "address",
          "name": "sender",
          "type": "address"
        }
      ],
      "name": "ERC20InvalidSender",
      "type": "error"
    },
    {
      "inputs": [
        {
          "internalType": "address",
          "name": "spender",
          "type": "address"
        }
      ],
      "name": "ERC20InvalidSpender",
      "type": "error"
    },
    {
      "anonymous": false,
      "inputs": [
        {
          "indexed": true,
          "internalType": "address",
          "name": "owner",
          "type": "address"
        },
        {
          "indexed": true,
          "internalType": "address",
          "name": "spender",
          "type": "address"
        },
        {
          "indexed": false,
          "internalType": "uint256",
          "name": "value",
          "type": "uint256"
        }
      ],
      "name": "Approval",
      "type": "event"
    },
    {
      "anonymous": false,
      "inputs": [
        {
          "indexed": true,
          "internalType": "address",
          "name": "from",
          "type": "address"
        },
        {
          "indexed": true,
          "internalType": "address",
          "name": "to",
          "type": "address"
        },
        {
          "indexed": false,
          "internalType": "uint256",
          "name": "value",
          "type": "uint256"
        }
      ],
      "name": "Transfer",
      "type": "event"
    },
    {
      "anonymous": false,
      "inputs": [
        {
          "indexed": false,
          "internalType": "address",
          "name": "buyer",
          "type": "address"
        },
        {
          "indexed": false,
          "internalType": "uint256",
          "name": "eth",
          "type": "uint256"
        }
      ],
      "name": "evEthToPoints",
      "type": "event"
    },
    {
      "anonymous": false,
      "inputs": [
        {
          "indexed": false,
          "internalType": "address",
          "name": "buyer",
          "type": "address"
        },
        {
          "indexed": false,
          "internalType": "uint256",
          "name": "points",
          "type": "uint256"
        }
      ],
      "name": "evPointsToEth",
      "type": "event"
    },
    {
      "inputs": [],
      "name": "EthToPoints",
      "outputs": [],
      "stateMutability": "payable",
      "type": "function"
    },
    {
      "inputs": [
        {
          "internalType": "uint256",
          "name": "points",
          "type": "uint256"
        }
      ],
      "name": "PointsToEth",
      "outputs": [],
      "stateMutability": "nonpayable",
      "type": "function"
    },
    {
      "inputs": [
        {
          "internalType": "address",
          "name": "owner",
          "type": "address"
        },
        {
          "internalType": "address",
          "name": "spender",
          "type": "address"
        }
      ],
      "name": "allowance",
      "outputs": [
        {
          "internalType": "uint256",
          "name": "",
          "type": "uint256"
        }
      ],
      "stateMutability": "view",
      "type": "function"
    },
    {
      "inputs": [
        {
          "internalType": "address",
          "name": "spender",
          "type": "address"
        },
        {
          "internalType": "uint256",
          "name": "value",
          "type": "uint256"
        }
      ],
      "name": "approve",
      "outputs": [
        {
          "internalType": "bool",
          "name": "",
          "type": "bool"
        }
      ],
      "stateMutability": "nonpayable",
      "type": "function"
    },
    {
      "inputs": [
        {
          "internalType": "address",
          "name": "account",
          "type": "address"
        }
      ],
      "name": "balanceOf",
      "outputs": [
        {
          "internalType": "uint256",
          "name": "",
          "type": "uint256"
        }
      ],
      "stateMutability": "view",
      "type": "function"
    },
    {
      "inputs": [],
      "name": "decimals",
      "outputs": [
        {
          "internalType": "uint8",
          "name": "",
          "type": "uint8"
        }
      ],
      "stateMutability": "view",
      "type": "function"
    },
    {
      "inputs": [],
      "name": "getMyPoints",
      "outputs": [
        {
          "internalType": "uint256",
          "name": "",
          "type": "uint256"
        }
      ],
      "stateMutability": "view",
      "type": "function"
    },
    {
      "inputs": [],
      "name": "name",
      "outputs": [
        {
          "internalType": "string",
          "name": "",
          "type": "string"
        }
      ],
      "stateMutability": "view",
      "type": "function"
    },
    {
      "inputs": [],
      "name": "symbol",
      "outputs": [
        {
          "internalType": "string",
          "name": "",
          "type": "string"
        }
      ],
      "stateMutability": "view",
      "type": "function"
    },
    {
      "inputs": [],
      "name": "totalSupply",
      "outputs": [
        {
          "internalType": "uint256",
          "name": "",
          "type": "uint256"
        }
      ],
      "stateMutability": "view",
      "type": "function"
    },
    {
      "inputs": [
        {
          "internalType": "address",
          "name": "to",
          "type": "address"
        },
        {
          "internalType": "uint256",
          "name": "value",
          "type": "uint256"
        }
      ],
      "name": "transfer",
      "outputs": [
        {
          "internalType": "bool",
          "name": "",
          "type": "bool"
        }
      ],
      "stateMutability": "nonpayable",
      "type": "function"
    },
    {
      "inputs": [
        {
          "internalType": "address",
          "name": "from",
          "type": "address"
        },
        {
          "internalType": "address",
          "name": "to",
          "type": "address"
        },
        {
          "internalType": "uint256",
          "name": "value",
          "type": "uint256"
        }
      ],
      "name": "transferFrom",
      "outputs": [
        {
          "internalType": "bool",
          "name": "",
          "type": "bool"
        }
      ],
      "stateMutability": "nonpayable",
      "type": "function"
    }
  ],
  "bytecode": "0x60806040523480156200001157600080fd5b506040518060400160405280600881526020017f455243506f696e740000000000000000000000000000000000000000000000008152506040518060400160405280600381526020017f455054000000000000000000000000000000000000000000000000000000000081525081600390816200008f919062000365565b508060049081620000a1919062000365565b50505033600560006101000a81548173ffffffffffffffffffffffffffffffffffffffff021916908373ffffffffffffffffffffffffffffffffffffffff1602179055506200044c565b600081519050919050565b7f4e487b7100000000000000000000000000000000000000000000000000000000600052604160045260246000fd5b7f4e487b7100000000000000000000000000000000000000000000000000000000600052602260045260246000fd5b600060028204905060018216806200016d57607f821691505b60208210810362000183576200018262000125565b5b50919050565b60008190508160005260206000209050919050565b60006020601f8301049050919050565b600082821b905092915050565b600060088302620001ed7fffffffffffffffffffffffffffffffffffffffffffffffffffffffffffffffff82620001ae565b620001f98683620001ae565b95508019841693508086168417925050509392505050565b6000819050919050565b6000819050919050565b600062000246620002406200023a8462000211565b6200021b565b62000211565b9050919050565b6000819050919050565b620002628362000225565b6200027a62000271826200024d565b848454620001bb565b825550505050565b600090565b6200029162000282565b6200029e81848462000257565b505050565b5b81811015620002c657620002ba60008262000287565b600181019050620002a4565b5050565b601f8211156200031557620002df8162000189565b620002ea846200019e565b81016020851015620002fa578190505b6200031262000309856200019e565b830182620002a3565b50505b505050565b600082821c905092915050565b60006200033a600019846008026200031a565b1980831691505092915050565b600062000355838362000327565b9150826002028217905092915050565b6200037082620000eb565b67ffffffffffffffff8111156200038c576200038b620000f6565b5b62000398825462000154565b620003a5828285620002ca565b600060209050601f831160018114620003dd5760008415620003c8578287015190505b620003d4858262000347565b86555062000444565b601f198416620003ed8662000189565b60005b828110156200041757848901518255600182019150602085019450602081019050620003f0565b8683101562000437578489015162000433601f89168262000327565b8355505b6001600288020188555050505b505050505050565b611246806200045c6000396000f3fe6080604052600436106100a75760003560e01c806370a082311161006457806370a08231146101d057806395d89b411461020d578063a9059cbb14610238578063ba9c463714610275578063dd62ed3e146102a0578063ee16a7e6146102dd576100a7565b806306fdde03146100ac578063095ea7b3146100d757806318160ddd1461011457806321b01e571461013f57806323b872dd14610168578063313ce567146101a5575b600080fd5b3480156100b857600080fd5b506100c16102e7565b6040516100ce9190610da2565b60405180910390f35b3480156100e357600080fd5b506100fe60048036038101906100f99190610e5d565b610379565b60405161010b9190610eb8565b60405180910390f35b34801561012057600080fd5b5061012961039c565b6040516101369190610ee2565b60405180910390f35b34801561014b57600080fd5b5061016660048036038101906101619190610efd565b6103a6565b005b34801561017457600080fd5b5061018f600480360381019061018a9190610f2a565b610446565b60405161019c9190610eb8565b60405180910390f35b3480156101b157600080fd5b506101ba610475565b6040516101c79190610f99565b60405180910390f35b3480156101dc57600080fd5b506101f760048036038101906101f29190610fb4565b61047e565b6040516102049190610ee2565b60405180910390f35b34801561021957600080fd5b506102226104c6565b60405161022f9190610da2565b60405180910390f35b34801561024457600080fd5b5061025f600480360381019061025a9190610e5d565b610558565b60405161026c9190610eb8565b60405180910390f35b34801561028157600080fd5b5061028a61057b565b6040516102979190610ee2565b60405180910390f35b3480156102ac57600080fd5b506102c760048036038101906102c29190610fe1565b61058b565b6040516102d49190610ee2565b60405180910390f35b6102e5610612565b005b6060600380546102f690611050565b80601f016020809104026020016040519081016040528092919081815260200182805461032290611050565b801561036f5780601f106103445761010080835404028352916020019161036f565b820191906000526020600020905b81548152906001019060200180831161035257829003601f168201915b5050505050905090565b600080610384610670565b9050610391818585610678565b600191505092915050565b6000600254905090565b6103b0338261068a565b3373ffffffffffffffffffffffffffffffffffffffff166108fc670de0b6b3a7640000836103de91906110b0565b9081150290604051600060405180830381858888f19350505050158015610409573d6000803e3d6000fd5b507f550acca041a653e46b44f19babb7c79170c663fba893e9bed8d14d5102662802338260405161043b929190611101565b60405180910390a150565b600080610451610670565b905061045e85828561070c565b6104698585856107a0565b60019150509392505050565b60006012905090565b60008060008373ffffffffffffffffffffffffffffffffffffffff1673ffffffffffffffffffffffffffffffffffffffff168152602001908152602001600020549050919050565b6060600480546104d590611050565b80601f016020809104026020016040519081016040528092919081815260200182805461050190611050565b801561054e5780601f106105235761010080835404028352916020019161054e565b820191906000526020600020905b81548152906001019060200180831161053157829003601f168201915b5050505050905090565b600080610563610670565b90506105708185856107a0565b600191505092915050565b60006105863361047e565b905090565b6000600160008473ffffffffffffffffffffffffffffffffffffffff1673ffffffffffffffffffffffffffffffffffffffff16815260200190815260200160002060008373ffffffffffffffffffffffffffffffffffffffff1673ffffffffffffffffffffffffffffffffffffffff16815260200190815260200160002054905092915050565b6000670de0b6b3a7640000346106289190611159565b90506106343382610894565b7fe0a1f9be8a2379331dbd8cce589f2c4106f5ae3ede102ef1ed9766aa980d8ec23382604051610665929190611101565b60405180910390a150565b600033905090565b6106858383836001610916565b505050565b600073ffffffffffffffffffffffffffffffffffffffff168273ffffffffffffffffffffffffffffffffffffffff16036106fc5760006040517f96c6fd1e0000000000000000000000000000000000000000000000000000000081526004016106f3919061118a565b60405180910390fd5b61070882600083610aed565b5050565b6000610718848461058b565b90507fffffffffffffffffffffffffffffffffffffffffffffffffffffffffffffffff811461079a578181101561078a578281836040517ffb8f41b2000000000000000000000000000000000000000000000000000000008152600401610781939291906111a5565b60405180910390fd5b61079984848484036000610916565b5b50505050565b600073ffffffffffffffffffffffffffffffffffffffff168373ffffffffffffffffffffffffffffffffffffffff16036108125760006040517f96c6fd1e000000000000000000000000000000000000000000000000000000008152600401610809919061118a565b60405180910390fd5b600073ffffffffffffffffffffffffffffffffffffffff168273ffffffffffffffffffffffffffffffffffffffff16036108845760006040517fec442f0500000000000000000000000000000000000000000000000000000000815260040161087b919061118a565b60405180910390fd5b61088f838383610aed565b505050565b600073ffffffffffffffffffffffffffffffffffffffff168273ffffffffffffffffffffffffffffffffffffffff16036109065760006040517fec442f050000000000000000000000000000000000000000000000000000000081526004016108fd919061118a565b60405180910390fd5b61091260008383610aed565b5050565b600073ffffffffffffffffffffffffffffffffffffffff168473ffffffffffffffffffffffffffffffffffffffff16036109885760006040517fe602df0500000000000000000000000000000000000000000000000000000000815260040161097f919061118a565b60405180910390fd5b600073ffffffffffffffffffffffffffffffffffffffff168373ffffffffffffffffffffffffffffffffffffffff16036109fa5760006040517f94280d620000000000000000000000000000000000000000000000000000000081526004016109f1919061118a565b60405180910390fd5b81600160008673ffffffffffffffffffffffffffffffffffffffff1673ffffffffffffffffffffffffffffffffffffffff16815260200190815260200160002060008573ffffffffffffffffffffffffffffffffffffffff1673ffffffffffffffffffffffffffffffffffffffff168152602001908152602001600020819055508015610ae7578273ffffffffffffffffffffffffffffffffffffffff168473ffffffffffffffffffffffffffffffffffffffff167f8c5be1e5ebec7d5bd14f71427d1e84f3dd0314c0f7b2291e5b200ac8c7c3b92584604051610ade9190610ee2565b60405180910390a35b50505050565b600073ffffffffffffffffffffffffffffffffffffffff168373ffffffffffffffffffffffffffffffffffffffff1603610b3f578060026000828254610b3391906111dc565b92505081905550610c12565b60008060008573ffffffffffffffffffffffffffffffffffffffff1673ffffffffffffffffffffffffffffffffffffffff16815260200190815260200160002054905081811015610bcb578381836040517fe450d38c000000000000000000000000000000000000000000000000000000008152600401610bc2939291906111a5565b60405180910390fd5b8181036000808673ffffffffffffffffffffffffffffffffffffffff1673ffffffffffffffffffffffffffffffffffffffff16815260200190815260200160002081905550505b600073ffffffffffffffffffffffffffffffffffffffff168273ffffffffffffffffffffffffffffffffffffffff1603610c5b5780600260008282540392505081905550610ca8565b806000808473ffffffffffffffffffffffffffffffffffffffff1673ffffffffffffffffffffffffffffffffffffffff168152602001908152602001600020600082825401925050819055505b8173ffffffffffffffffffffffffffffffffffffffff168373ffffffffffffffffffffffffffffffffffffffff167fddf252ad1be2c89b69c2b068fc378daa952ba7f163c4a11628f55a4df523b3ef83604051610d059190610ee2565b60405180910390a3505050565b600081519050919050565b600082825260208201905092915050565b60005b83811015610d4c578082015181840152602081019050610d31565b60008484015250505050565b6000601f19601f8301169050919050565b6000610d7482610d12565b610d7e8185610d1d565b9350610d8e818560208601610d2e565b610d9781610d58565b840191505092915050565b60006020820190508181036000830152610dbc8184610d69565b905092915050565b600080fd5b600073ffffffffffffffffffffffffffffffffffffffff82169050919050565b6000610df482610dc9565b9050919050565b610e0481610de9565b8114610e0f57600080fd5b50565b600081359050610e2181610dfb565b92915050565b6000819050919050565b610e3a81610e27565b8114610e4557600080fd5b50565b600081359050610e5781610e31565b92915050565b60008060408385031215610e7457610e73610dc4565b5b6000610e8285828601610e12565b9250506020610e9385828601610e48565b9150509250929050565b60008115159050919050565b610eb281610e9d565b82525050565b6000602082019050610ecd6000830184610ea9565b92915050565b610edc81610e27565b82525050565b6000602082019050610ef76000830184610ed3565b92915050565b600060208284031215610f1357610f12610dc4565b5b6000610f2184828501610e48565b91505092915050565b600080600060608486031215610f4357610f42610dc4565b5b6000610f5186828701610e12565b9350506020610f6286828701610e12565b9250506040610f7386828701610e48565b9150509250925092565b600060ff82169050919050565b610f9381610f7d565b82525050565b6000602082019050610fae6000830184610f8a565b92915050565b600060208284031215610fca57610fc9610dc4565b5b6000610fd884828501610e12565b91505092915050565b60008060408385031215610ff857610ff7610dc4565b5b600061100685828601610e12565b925050602061101785828601610e12565b9150509250929050565b7f4e487b7100000000000000000000000000000000000000000000000000000000600052602260045260246000fd5b6000600282049050600182168061106857607f821691505b60208210810361107b5761107a611021565b5b50919050565b7f4e487b7100000000000000000000000000000000000000000000000000000000600052601160045260246000fd5b60006110bb82610e27565b91506110c683610e27565b92508282026110d481610e27565b915082820484148315176110eb576110ea611081565b5b5092915050565b6110fb81610de9565b82525050565b600060408201905061111660008301856110f2565b6111236020830184610ed3565b9392505050565b7f4e487b7100000000000000000000000000000000000000000000000000000000600052601260045260246000fd5b600061116482610e27565b915061116f83610e27565b92508261117f5761117e61112a565b5b828204905092915050565b600060208201905061119f60008301846110f2565b92915050565b60006060820190506111ba60008301866110f2565b6111c76020830185610ed3565b6111d46040830184610ed3565b949350505050565b60006111e782610e27565b91506111f283610e27565b925082820190508082111561120a57611209611081565b5b9291505056fea2646970667358221220da9dd542f74178b823c3d152b71d14b624ea6e42ed07f272e2bb0d88e46ed0e864736f6c63430008140033",
  "linkReferences": {},
  "deployedLinkReferences": {}
}